:03000000021038B3
:1010380075C7AA75C75575FD5A75C7AA75C7557579
:10104800FDA5787FE4F6D8FD9000007FFF7E03E4DD
:0C105800F0A3DFFCDEFA75812B020D23F3
:03000B0002100BD5
:10100B00C0E0758CC1758A7FE51F451E6008E51F22
:10101B00151F7002151EE52560021525E5274526CF
:0D102B006008E527152770021526D0E03279
:03003B000210D8D8
:0A10D800539BFD75EC007509013211
:0710EB00EFF5D9EEF5D1226B
:100D230053B1FE43B20143B30153B4FE53B3FB4388
:100D3300B40453B3F743B40853B3EF43B41053B1FC
:100D4300DF43B22043B10853B2F743B30253B4FDB8
:100D5300E4F59175C7AA75C75575FD5A75C7AA7588
:100D6300C75575FDA553E9DF43EA0853EBF753E98C
:100D7300F753EAFD43EB0243E90153E9FBA2AF92C8
:100D830000C2AF75C7AA75C75543910143C6047521
:100D9300C7AA75C7555391FEA20092AF53DF3F53C5
:100DA300DFEFD2DC43DF0553DFFD53D6FB7F3F7E0E
:100DB300011210EBD2DF751E03751FE8D2AF43E1BA
:100DC300011210C3751202120EF7E5087055E512F1
:100DD300640170028053E5126402703CFFFE12103E
:100DE300E2C293C292C294C2DFA2AF9200C2AF75B5
:100DF300C7AA75C75543910153C6FB75C7AA75C7E3
:100E0300555391FEA20092AFC285E50970B9F5EC86
:100E1300439B0243870280AFE512640470A912105A
:100E23006480A4E51264017005120BE48099E51255
:100E33006402700BE51F451E708D12108D8088E5CE
:0B0E43001264047082751202020DCAD6
:100EF700E5256003020F9E75250AD28000000000D9
:100F07002090047F0180027F008F08C280208351D8
:100F1700C3E52094FA7480948050020520E51B6491
:100F2700026074AF207E00D3EF9496748094804063
:100F370005751B028013D3EF9414EE6480948040F0
:100F470005751B018003E4F51BE51B64027048E58A
:100F57001264047008751201F526F527227512042C
:100F670022E4F520E51B6401702AE5126401701183
:100F7700751202F51BFFFE1210E2C2DFE4F50980CD
:100F870013E5126402700D751201F526F527C2925A
:080F9700C293C294E4F51B2291
:100BE40020DF21D2DFA2AF9200C2AF75C7AA75C7BA
:100BF4005543910143C60475C7AA75C7555391FE61
:100C0400A20092AFE50964017002F509E51F451ED3
:100C14006003020D22E52745266003020CBC3094D4
:100C240003020CBCFFFE1210E20000120F9FE4FB53
:100C3400FA79C878C21208078F168E158D148C1392
:100C4400AB16AA15A914A8137F007EC07D417C456C
:100C5400120A018F1A8E198D188C17E4FFFE7D80FD
:100C64007C3FAB1AAA19A918A817120A9E60114052
:100C74000F751202E4FFFE1210E2C2DFE4F509224E
:100C8400AF1AAE19AD18AC17E4FBFA79A078431289
:100C940008F88F1A8E198D188C17E4FFFE7D807C5E
:100CA400BFAB1AAA19A918A817120807120B5512D4
:100CB40010E27526EA752760E508705F751E0375F6
:100CC4001FE8C292C29320944BFF7E407D1C7C455A
:100CD400AB16AA15A914A813120A9E60044002D2E6
:100CE400947F007E407D4E7C45AB16AA15A914A8BE
:100CF40013120A9E60044002D2937F007EC07D736B
:100D04007C45AB16AA15A914A813120A9E600F40BD
:0F0D14000DD29222C294C293C2922212108D224B
:10106400E4FFFE1210E2E51F451E701C20930D756F
:101074001E03751FE8D293D292C29422751E057581
:091084001FDCC293C292C2942247
:06108D00751E03751F2013
:10109300209403D29422209303D29322209203D24A
:0910A3009222C292C293C294226F
:1010C3005389F0438901758E0843A802758CC17555
:0510D3008A7FD28C228F
:100E4E00A2AF9200C2AF75C7AA75C755439F01A244
:100E5E000092AF75A60CE4F5A775AF04A2AF920091
:100E6E00C2AF75C7AA75C75543A401A20092AFAF12
:100E7E00AE75A60DF5A775AF04A2AF9200C2AF7501
:100E8E00C7AA75C75543A401A20092AFADAE5305D4
:100E9E000FA2AF9200C2AF75C7AA75C755539FFE7A
:100EAE00A20092AFEF75F010A47C002DFDEC35F092
:100EBE00FC120B1C8F0D8E0C8D0B8C0AAB0DAA0C1D
:100ECE00A90BA80AE4FFFE7D807C45120A01A80446
:100EDE00A905AA06AB07E4FFFE7D407C45120A0178
:080EEE008F248E238D228C213C
:010EF60022D9
:1010AC00E4FFEFC3940374809480500AC2EFD2EE35
:0610BC0030EFFD0F80EC97
:0110C200220B
:100F9F00120E4E43E80853E8F843E1011210AC7506
:100FAF001E00751F02E51F451E70FAC2EFD2EE300C
:100FBF00EFFDAFC3EF75F010A4ADC27C002DFDECBB
:100FCF0035F0FC120B1C8F2B8E2A8D298C28E4FFF9
:100FDF00FE7D407C45AB0DAA0CA90BA80A1208F8A0
:100FEF008F118E108D0F8C0EAB2BAA2AA929A82832
:0B0FFF00120A018F118E108D0F8C0E56
:01100A0022C3
:0910E200EFF5DCEEF5D4D2DE22BC
:10080000020BC1E86480F8E933E83360110460F05A
:10081000ED33EC337009E8FCE9FDEAFEEBFF22045E
:1008200060DED3EB9FEA9EE99DE8C2E78CF0C2F759
:1008300095F0400CE8CCF8E9CDF9EACEFAEBCFFB25
:10084000120B8C85D0F05804700320D5B3E80470E7
:10085000075002B2D5020BCB92D5EC0460F7E4CC82
:10086000C0E0C398F8603B94186008400DD0E0FBEE
:10087000020BA3E4FBFAC9FC8028E830E406E4C9D3
:10088000FBE4CAFCE830E305E4C9CACBFCE8540742
:100890006010F8C3E913F9EA13FAEB13FBEC13FC4D
:1008A000D8F130F52FC3E49CFCEF9BFFEE9AFEEDF0
:1008B00099FDD0E0FBEF4E4D4C701222DB03020B92
:1008C000C8EC2CFCEF33FFEE33FEED33FDED30E7EB
:1008D000EB020BA3EF2BFFEE3AFEED39FDD0E0FB70
:1008E00050130BBB0003020BCBED13FDEE13FEEF19
:0808F00013FFEC13FC020BA343
:1008F800EC4D6011E8497017ED33EC3304600DE4FA
:10090800FCFFFEFD22E933E8330470F8020BC11244
:100918000B8C58046009E4CC248150062850090245
:100928000BCB284003020BC8C0E0EB4A7044B980E7
:1009380006D0E0FB020BB7EF4E701CBD8008EBFF42
:10094800EAFEE9FD80EBE98DF0A4FEE5F00209E19D
:10095800E9CDF9EAFEEBFFEF89F0A4FCE5F0CE89DA
:10096800F0A42EFFE435F0CD89F0A42DFEE435F097
:100978008067EF4E7005BD80D780C3EF8BF0A4ACC5
:10098800F0EE8BF0A42CFCE435F0F8EF8AF0A42C00
:10099800E5F038FCE433CB8DF0A42CFCE5F03BF813
:1009A800EE8AF0A42CFCE5F038F8E433CF89F0A403
:1009B8002CFCE5F038CF3400CE89F0A42FFFE5F009
:1009C8003EFEE433C98DF0A42EFEE5F039CD8AF061
:1009D800A42FFFE5F03EFEE43DFD33D0E0FB5007D9
:1009E8000BBB000F020BCBEC2CFCEF33FFEE33FEFE
:0609F800ED33FD020BA32C
:1009FE00020BCBEC5D046005E859047003020BC1D9
:100A0E00120B8C580460F6EC4860F2EC7004FDFE9C
:100A1E00FF22C860DB2481C85009C39860025006CB
:100A2E00020BC89850CAF582E9294B4A7005AB8271
:100A3E00020BB775F0007C1A7880C3EF9BEE9AED2F
:100A4E0099400DC3EF9BFFEE9AFEED99FDE842F043
:100A5E00DC23ACF0D0E0FFD0E0FED0E0FDAB822096
:100A6E00E7101BEB60BAEC2CFCEF33FFEE33FEED20
:100A7E0033FD020BA3E803F830E705C0F075F00074
:100A8E00EF2FFFEE33FEED33FD40B830E7C280AA04
:100A9E0074F8CC6480CCC86480C8F58204604FC3FF
:100AAE00EB9FF5F0EA9E42F0E99D42F0E89C45F09E
:100ABE00603C501DE5825FFFE582D313CB5BCBF428
:100ACE002B5582FB50280ABA002409B90020088051
:100ADE001DE5825BFBE582D313CF5FCFF4C3132FEB
:100AEE005582FF50090EBE00050DBD00010CC3EB73
:100AFE009FF5F0EA9E42F0E99D42F0E89C45F060D9
:090B0E0007CC4820E701B3EC22FA
:100B170075F020800E75F010800575F0087D007E59
:100B2700007F003392D530D503120BD6EC3340103B
:100B3700EF33FFEE33FEED33FDEC33FCD5F0ED2262
:0E0B4700E5F0247EA2D513CC92E7CDCEFF229E
:100B5500EDD2E7CD33EC3392D524814006E4FFFE98
:100B6500FDFC22FCE4CFCECDCC24E0501174FF80F7
:100B7500EDC3CC13CCCD13CDCE13CECF13CF047094
:070B8500F030D5DE020BD6B3
:100B8C00E9D2E7C933E833F892D5EDD2E7CD33ECAF
:070B9C0033FC5002B2D52228
:100BA300EC30E7100FBF000C0EBE00080DBD0004B3
:100BB3000BEB6014A2D5EB13FCED92E7FD2274FF5F
:100BC300FCFDFEFF22E480F8A2D574FF13FC7D80B8
:030BD300E480EFCC
:0E0BD600C3E49FFFE49EFEE49DFDE49CFC2230
:00000001FF
